:100000000C942A000C9464070C9491070C94BE077E
:100010000C9447000C9447000C9447000C94470044
:100020000C9447000C9447000C9447000C94470034
:100030000C9447000C9447000C9447000C94470024
:100040000C9447000C9447000C9447000C94470014
:100050000C94470011241FBECFE5D8E0DEBFCDBF12
:1000600010E0A0E6B0E0E2EBF2E402C005900D92F1
:10007000AA39B107D9F710E0AAE9B0E001C01D9292
:10008000A03AB107E1F70E9414200C9457210C9478
:100090000000EF92FF920F931F937B018C0120E0F1
:1000A00030E040E05FE40E94F50388238CF0C80153
:1000B000B70120E030E040E05FE40E94C1010E940F
:1000C00055049B01AC01205030404040504806C0D0
:1000D000C801B7010E9455049B01AC01B901CA01D6
:1000E0001F910F91FF90EF900895A0E0B0E0EBE733
:1000F000F0E00C942021DC012B01FA019C9192305C
:1001000008F439C1EB018881823008F433C194309E
:1001100069F4843009F02FC111969C91119789815F
:10012000981709F428C1A0E6B0E025C1843009F48D
:1001300021C18230A9F4923009F01DC19A01AD01AC
:1001400088E0EA010990AE01E90109929E0181501F
:10015000C1F7E201898111969C918923818308C1AD
:10016000923009F407C112962D903C901397EB0141
:100170008A819B811496AD90BD90CD90DC901797AD
:10018000EC80FD800E811F819101281B390BB90184
:1001900037FF04C066277727621B730B6032710537
:1001A0000CF061C0121613066CF537014801062EDB
:1001B00004C096948794779467940A94D2F721E0C8
:1001C00030E040E050E004C0220F331F441F551FB1
:1001D0006A95D2F721503040404050402E213F21B7
:1001E00040235123211531054105510521F021E01E
:1001F00030E040E050E079018A01E628F72808293C
:1002000019293CC0232BD1F1260E371E350146019A
:10021000062E04C096948794779467940A94D2F734
:1002200021E030E040E050E004C0220F331F441FC3
:10023000551F6A95D2F721503040404050402A2146
:100240003B214C215D21211531054105510521F04E
:1002500021E030E040E050E059016A01A628B728CB
:10026000C828D9280BC0821593052CF01C01AA249C
:10027000BB24650103C0EE24FF24870111969C91E5
:10028000D20111968C91981709F445C0992339F041
:10029000A80197012A193B094C095D0906C0A6016E
:1002A00095012E193F09400B510B57FD08C01182D3
:1002B0003382228224833583468357831DC081E0A5
:1002C00081833382228288279927DC01821B930B4A
:1002D000A40BB50B84839583A683B7830DC0220F2F
:1002E000331F441F551F24833583468357838281E0
:1002F000938101979383828324813581468157813D
:10030000DA01C9010197A109B1098F5F9F4FAF4F72
:10031000BF4328F30BC0918333822282EA0CFB1C7B
:100320000C1D1D1DE482F5820683178383E0808304
:10033000248135814681578157FF1AC0C901AA27F8
:1003400097FDA095BA2F81709070A070B0705695EF
:10035000479537952795822B932BA42BB52B848318
:100360009583A683B7838281938101969383828349
:10037000DF0101C0D201CD01CDB7DEB7E2E10C94BF
:100380003C21A0E2B0E0E7ECF1E00C942C21698381
:100390007A838B839C832D833E834F835887E9E048
:1003A000EE2EF12CEC0EFD1ECE010196B7010E943F
:1003B0007E058E010F5E1F4FCE010596B8010E948B
:1003C0007E058A8991E089278A8BC701B801AE0131
:1003D000475E5F4F0E9475000E94A904A096E6E068
:1003E0000C944821A0E2B0E0E8EFF1E00C942C215D
:1003F00069837A838B839C832D833E834F835887C5
:10040000F9E0EF2EF12CEC0EFD1ECE010196B701A6
:100410000E947E058E010F5E1F4FCE010596B8012A
:100420000E947E05C701B801AE01475E5F4F0E9482
:1004300075000E94A904A096E6E00C944821A0E271
:10044000B0E0E5E2F2E00C94202169837A838B83AB
:100450009C832D833E834F835887CE010196BE0136
:10046000675F7F4F0E947E05CE010596BE016F5EDD
:100470007F4F0E947E059985923088F0898982306D
:10048000C8F0943019F4823051F404C0843029F457
:10049000923081F480E690E0C6C0923049F420E0CA
:1004A0009A858A89981321E02A87CE010996BBC0D4
:1004B000823049F420E09A858A89981321E02A8BBA
:1004C000CE014196B0C02D843E844F8458886D88FB
:1004D0007E888F88988CEE24FF248701AA24BB2471
:1004E000650140E050E060E070E0E0E0F0E0C10174
:1004F00081709070892BE9F0E60CF71C081D191D1E
:100500009A01AB012A0D3B1D4C1D5D1D80E090E062
:10051000A0E0B0E0E614F7040805190520F481E036
:1005200090E0A0E0B0E0BA01A901480F591F6A1F8E
:100530007B1FAA0CBB1CCC1CDD1C97FE08C081E0F5
:1005400090E0A0E0B0E0A82AB92ACA2ADB2A3196B6
:10055000E032F10549F0660C771C881C991C569412
:10056000479437942794C3CFFA85EA892B893C892D
:100570008B859C85280F391F2E5F3F4F17C0CA01FE
:1005800081709070892B61F016950795F794E79428
:1005900080E090E0A0E0B0E8E82AF92A0A2B1B2BC3
:1005A00076956795579547952F5F3F4F77FDE7CF36
:1005B0000CC0440F551F661F771F17FD4160EE0CDE
:1005C000FF1C001F111F21503040403090E05907A0
:1005D00090E0690790E4790760F32B8F3C8FDB0193
:1005E000CA018F779070A070B07080349105A1051A
:1005F000B10561F447FD0AC0E114F10401051105DC
:1006000029F0405C5F4F6F4F7F4F40781A8EFE1786
:1006100011F081E08A8F4D8F5E8F6F8F78A383E01A
:10062000898FCE0149960E94A904A096E2E10C941C
:100630003C21A8E1B0E0EFE1F3E00C9428216983CC
:100640007A838B839C832D833E834F835887B9E0C5
:10065000EB2EF12CEC0EFD1ECE010196B7010E948F
:100660007E058E010F5E1F4FCE010596B8010E94D8
:100670007E052985223008F47EC03989323010F495
:10068000B8017CC08A859A8989278A87243011F02D
:10069000223031F4231709F06EC060E670E06EC0BE
:1006A000343039F41D861E861F86188A1C861B86E8
:1006B00004C0323021F484E08987B7015FC02B8504
:1006C0003C858B899C89281B390B3C872B87ED84C3
:1006D000FE840F851889AD88BE88CF88D88CEA142F
:1006E000FB040C051D0540F4EE0CFF1C001F111F40
:1006F000215030403C872B8720E030E040E050E044
:1007000080E090E0A0E0B0E460E070E0EA14FB0478
:100710000C051D0540F0282B392B4A2B5B2BEA18C2
:10072000FB080C091D09B695A79597958795EE0CC2
:10073000FF1C001F111F6F5F7F4F6F31710531F775
:10074000DA01C9018F779070A070B0708034910584
:10075000A105B10561F427FD0AC0E114F10401050A
:10076000110529F0205C3F4F4F4F5F4F20782D87B8
:100770003E874F87588BBE01675F7F4FCB010E943A
:10078000A9046896EAE00C944421A8E1B0E0EBECFF
:10079000F3E00C942C2169837A838B839C832D83D3
:1007A0003E834F83588789E0E82EF12CEC0EFD1E26
:1007B000CE010196B7010E947E058E010F5E1F4F8C
:1007C000CE010596B8010E947E058985823040F0F1
:1007D0008989823028F0C701B8010E94F60501C05E
:1007E0008FEF6896E6E00C944821A8E1B0E0EBEFCB
:1007F000F3E00C942C2169837A838B839C832D8373
:100800003E834F83588789E0E82EF12CEC0EFD1EC5
:10081000CE010196B7010E947E058E010F5E1F4F2B
:10082000CE010596B8010E947E058985823040F090
:100830008989823028F0C701B8010E94F60501C0FD
:100840008FEF6896E6E00C944821A8E1B0E0EBE277
:10085000F4E00C942C2169837A838B839C832D8311
:100860003E834F83588789E0E82EF12CEC0EFD1E65
:10087000CE010196B7010E947E058E010F5E1F4FCB
:10088000CE010596B8010E947E058985823040F030
:100890008989823028F0C701B8010E94F60501C09D
:1008A00081E06896E6E00C944821ACE0B0E0EBE52E
:1008B000F4E00C94302169837A838B839C83CE018E
:1008C0000196BE016B5F7F4F0E947E058D81823055
:1008D00061F1823050F1843021F48E81882351F10E
:1008E0002EC02F81388537FD20C06E812F31310514
:1008F0001CF06623F9F023C08EE190E0821B930B7D
:1009000029853A854B855C8504C056954795379572
:1009100027958A95D2F76623B1F05095409530958A
:1009200021953F4F4F4F5F4F0EC020E030E040E039
:1009300050E009C02FEF3FEF4FEF5FE704C020E02A
:1009400030E040E050E8B901CA012C96E2E00C9496
:100950004C21DF92EF92FF920F931F93FC01E480F2
:10096000F58006811781D1808081823048F480E053
:1009700090E0A0E1B0E0E82AF92A0A2B1B2BA5C0E1
:10098000843009F49FC0823021F4EE24FF248701D3
:1009900005C0E114F1040105110519F4E0E0F0E0EF
:1009A00096C0628173819FEF623879070CF05BC05B
:1009B00022E83FEF261B370B2A3131052CF020E0CF
:1009C00030E040E050E02AC0B801A701022E04C088
:1009D00076956795579547950A94D2F781E090E010
:1009E000A0E0B0E004C0880F991FAA1FBB1F2A9582
:1009F000D2F70197A109B1098E219F21A023B1232C
:100A00000097A105B10521F081E090E0A0E0B0E001
:100A10009A01AB01282B392B4A2B5B2BDA01C90138
:100A20008F779070A070B07080349105A105B105EA
:100A300039F427FF09C0205C3F4F4F4F5F4F04C080
:100A4000215C3F4F4F4F5F4FE0E0F0E02030A0E0EF
:100A50003A07A0E04A07A0E45A0710F0E1E0F0E00E
:100A600079018A0127C06038710564F5FB01E158FE
:100A7000FF4FD801C7018F779070A070B07080349D
:100A80009105A105B10539F4E7FE0DC080E490E0C1
:100A9000A0E0B0E004C08FE390E0A0E0B0E0E80E9A
:100AA000F91E0A1F1B1F17FF05C016950795F7941F
:100AB000E794319687E016950795F794E7948A9521
:100AC000D1F705C0EE24FF248701EFEFF0E06E2F91
:100AD000679566276795902F9F77D794DD24D794E5
:100AE0008E2F8695492F462B582F5D29B701CA01B5
:100AF0001F910F91FF90EF90DF900895FC01DB01B3
:100B0000408151812281622F6F7770E0221F22275E
:100B1000221F9381892F880F822B282F30E0991F65
:100B20009927991F11969C93119721153105A9F5C5
:100B3000411551056105710511F482E037C082E865
:100B40009FEF13969C938E9312979A01AB0167E0E7
:100B5000220F331F441F551F6A95D1F783E08C93F2
:100B60000DC0220F331F441F551F12968D919C916B
:100B70001397019713969C938E931297203080E0E1
:100B8000380780E0480780E4580758F314962D93FF
:100B90003D934D935C93179708952F3F310579F45A
:100BA000411551056105710519F484E08C93089590
:100BB00064FF03C081E08C9312C01C9210C02F57B9
:100BC000304013963C932E93129783E08C9387E0EA
:100BD000440F551F661F771F8A95D1F770641496CE
:100BE0004D935D936D937C93179708951F93DC014C
:100BF000FB019C91923008F447C08081823008F458
:100C000043C0943051F411961C91843099F5818140
:100C1000682F70E0611B71093FC0843021F0923071
:100C200031F48230B9F18181882389F12DC0119688
:100C30001C9111978230F1F081811817D9F4129626
:100C40002D913C911397828193818217930794F0A1
:100C500028173907BCF014968D919D910D90BC9189
:100C6000A02D2481358146815781281739074A07ED
:100C70005B0718F4112341F00AC082179307A407F9
:100C8000B50740F4112319F061E070E005C06FEF83
:100C90007FEF02C060E070E0CB011F910895DF9309
:100CA000CF9300D000D0CDB7DEB769837A838B8332
:100CB0009C83E0E4F0E089819A81AB81BC81892F3B
:100CC0009A2FAB2FBB278083E9E2F0E089818083F4
:100CD000EAE2F0E088E18083E0E4F0E08EE88083FF
:100CE0000F900F900F900F90CF91DF910895DF93A9
:100CF000CF930F92CDB7DEB78983EBE2F0E080812E
:100D0000882F90E0807290700097B9F3ECE2F0E0E9
:100D1000898180830F90CF91DF910895DF93CF93E6
:100D2000CDB7DEB7EBE2F0E080818823DCF7ECE2C0
:100D3000F0E08081CF91DF910895DF93CF93CDB71D
:100D4000DEB7ADE2B0E0EDE2F0E0808180648C934C
:100D5000ADE2B0E0EDE2F0E0808180618C93ADE245
:100D6000B0E0EDE2F0E0808181608C93ADE2B0E034
:100D7000EDE2F0E080818D7F8C93AEE2B0E0EEE2B8
:100D8000F0E080818E7F8C93ADE2B0E0EDE2F0E0A8
:100D900080818B7F8C93ADE2B0E0EDE2F0E080816A
:100DA000877F8C93CF91DF910895DF93CF930F923C
:100DB000CDB7DEB78983EFE2F0E089818083EEE290
:100DC000F0E080818823DCF70F90CF91DF910895C8
:100DD000DF93CF93CDB7DEB7ABE5B0E0EBE5F0E066
:100DE000808180648C93A5E5B0E0E5E5F0E080814A
:100DF0008E7F8C93A5E5B0E0E5E5F0E08081826030
:100E00008C93ABE5B0E0EBE5F0E080818F778C93DD
:100E1000A5E5B0E0E5E5F0E0808184608C93A5E590
:100E2000B0E0E5E5F0E08081877F8C93ABE5B0E052
:100E3000EBE5F0E080818F7D8C93A5E5B0E0E5E502
:100E4000F0E0808180648C93AFE5B0E0EFE5F0E006
:100E5000808180688C93CF91DF910895DF93CF9349
:100E600000D0CDB7DEB79A83898389819A81909328
:100E70009B0080939A000F900F90CF91DF9108957F
:100E8000DF93CF9300D0CDB7DEB79A838983898172
:100E90009A8190939D0080939C000F900F90CF912A
:100EA000DF910895DF93CF9300D0CDB7DEB79A835B
:100EB000898389819A8190939F0080939E000F90EF
:100EC0000F90CF91DF9108951F920F920FB60F925E
:100ED00011242F933F934F935F936F937F938F933F
:100EE0009F93AF93BF93EF93FF93DF93CF93CDB7D0
:100EF000DEB7E0919A00F0919B000995CF91DF91C8
:100F0000FF91EF91BF91AF919F918F917F916F91E1
:100F10005F914F913F912F910F900FBE0F901F90B7
:100F200018951F920F920FB60F9211242F933F9393
:100F30004F935F936F937F938F939F93AF93BF93E1
:100F4000EF93FF93DF93CF93CDB7DEB7E0919C0093
:100F5000F0919D000995CF91DF91FF91EF91BF91A5
:100F6000AF919F918F917F916F915F914F913F9141
:100F70002F910F900FBE0F901F9018951F920F92F8
:100F80000FB60F9211242F933F934F935F936F935C
:100F90007F938F939F93AF93BF93EF93FF93DF93D1
:100FA000CF93CDB7DEB7E0919E00F0919F000995F9
:100FB000CF91DF91FF91EF91BF91AF919F918F9171
:100FC0007F916F915F914F913F912F910F900FBE45
:100FD0000F901F901895DF93CF9300D000D000D0D2
:100FE000CDB7DEB78B836C838B818695869586958E
:100FF0008A838B81877089838A81282F30E03E83A2
:101000002D838D819E818130910509F443C02D810E
:101010003E81223031052CF48D819E81009771F044
:10102000BCC02D813E812230310509F45FC08D8125
:101030009E818330910509F485C0AFC08C818130D9
:10104000A1F4AAE3B0E0EAE3F0E08081482F8981CF
:10105000282F30E081E090E0022E02C0880F991F17
:101060000A94E2F7842B8C9398C0AAE3B0E0EAE3F9
:10107000F0E08081482F8981282F30E081E090E0E6
:10108000022E02C0880F991F0A94E2F780958423EC
:101090008C9383C08C818130A1F4A7E3B0E0E7E3B7
:1010A000F0E08081482F8981282F30E081E090E0B6
:1010B000022E02C0880F991F0A94E2F7842B8C93AA
:1010C0006CC0A7E3B0E0E7E3F0E08081482F8981BE
:1010D000282F30E081E090E0022E02C0880F991F97
:1010E0000A94E2F7809584238C9357C08C818130D9
:1010F000A1F4A4E3B0E0E4E3F0E08081482F89812B
:10110000282F30E081E090E0022E02C0880F991F66
:101110000A94E2F7842B8C9340C0A4E3B0E0E4E3AC
:10112000F0E08081482F8981282F30E081E090E035
:10113000022E02C0880F991F0A94E2F7809584233B
:101140008C932BC08C818130A1F4A1E3B0E0E1E36A
:10115000F0E08081482F8981282F30E081E090E005
:10116000022E02C0880F991F0A94E2F7842B8C93F9
:1011700014C0A1E3B0E0E1E3F0E08081482F898171
:10118000282F30E081E090E0022E02C0880F991FE6
:101190000A94E2F7809584238C9326960FB6F894F0
:1011A000DEBF0FBECDBFCF91DF910895DF93CF9308
:1011B00000D000D000D0CDB7DEB78B836C838B819D
:1011C0008695869586958A838B81877089838A81A7
:1011D000282F30E03E832D838D819E8181309105C3
:1011E00009F443C02D813E81223031052CF48D81DC
:1011F0009E81009771F0BCC02D813E812230310567
:1012000009F45FC08D819E818330910509F485C00A
:10121000AFC08C818130A1F4ABE3B0E0EBE3F0E050
:101220008081482F8981282F30E081E090E0022ED4
:1012300002C0880F991F0A94E2F7842B8C9398C000
:10124000ABE3B0E0EBE3F0E08081482F8981282F09
:1012500030E081E090E0022E02C0880F991F0A94CE
:10126000E2F7809584238C9383C08C818130A1F434
:10127000A8E3B0E0E8E3F0E08081482F8981282FDF
:1012800030E081E090E0022E02C0880F991F0A949E
:10129000E2F7842B8C936CC0A8E3B0E0E8E3F0E0C5
:1012A0008081482F8981282F30E081E090E0022E54
:1012B00002C0880F991F0A94E2F7809584238C93CB
:1012C00057C08C818130A1F4A5E3B0E0E5E3F0E004
:1012D0008081482F8981282F30E081E090E0022E24
:1012E00002C0880F991F0A94E2F7842B8C9340C0A8
:1012F000A5E3B0E0E5E3F0E08081482F8981282F65
:1013000030E081E090E0022E02C0880F991F0A941D
:10131000E2F7809584238C932BC08C818130A1F4DB
:10132000A2E3B0E0E2E3F0E08081482F8981282F3A
:1013300030E081E090E0022E02C0880F991F0A94ED
:10134000E2F7842B8C9314C0A2E3B0E0E2E3F0E078
:101350008081482F8981282F30E081E090E0022EA3
:1013600002C0880F991F0A94E2F7809584238C931A
:1013700026960FB6F894DEBF0FBECDBFCF91DF919A
:101380000895DF93CF9300D000D000D0CDB7DEB763
:101390008C838C818695869586958B838C818770CE
:1013A0008A838B81282F30E03E832D834D815E819F
:1013B0004130510541F18D819E818230910534F497
:1013C0002D813E812115310561F052C04D815E8134
:1013D0004230510551F18D819E8183309105B9F1E3
:1013E00047C0EBE3F0E08081282F30E08A81882F2E
:1013F00090E0A90102C0559547958A95E2F7CA0188
:101400008170898335C0E8E3F0E08081282F30E0E7
:101410008A81882F90E0A90102C0559547958A9549
:10142000E2F7CA018170898323C0E5E3F0E080819F
:10143000282F30E08A81882F90E0A90102C05595BD
:1014400047958A95E2F7CA018170898311C0E2E36A
:10145000F0E08081282F30E08A81882F90E0A90178
:1014600002C0559547958A95E2F7CA018170898334
:10147000898126960FB6F894DEBF0FBECDBFCF91FF
:10148000DF910895DF93CF9300D000D000D0CDB787
:10149000DEB78C838C818695869586958B838C812F
:1014A00087708A838B81282F30E03E832D834D8186
:1014B0005E814130510541F18D819E8182309105DF
:1014C00034F42D813E812115310561F052C04D81EA
:1014D0005E814230510551F18D819E8183309105AD
:1014E000B9F147C0E9E3F0E08081282F30E08A813C
:1014F000882F90E0A90102C0559547958A95E2F79B
:10150000CA018170898335C0E6E3F0E08081282F2D
:1015100030E08A81882F90E0A90102C05595479557
:101520008A95E2F7CA018170898323C0E3E3F0E082
:101530008081282F30E08A81882F90E0A90102C0A5
:10154000559547958A95E2F7CA018170898311C044
:10155000E0E3F0E08081282F30E08A81882F90E05E
:10156000A90102C0559547958A95E2F7CA01817095
:101570008983898126960FB6F894DEBF0FBECDBF52
:10158000CF91DF910895DF93CF9300D000D00F92D9
:10159000CDB7DEB78B838B818695869586958A83BA
:1015A0008B81877089838A81282F30E03D832C834B
:1015B0008C819D818130910549F12C813D812230C2
:1015C00031052CF48C819D81009761F05AC02C81EB
:1015D0003D812230310571F18C819D8183309105EF
:1015E000E9F14FC0ABE3B0E0EBE3F0E08081482FDE
:1015F0008981282F30E081E090E0022E02C0880F20
:10160000991F0A94E2F784278C933BC0A8E3B0E0CB
:10161000E8E3F0E08081482F8981282F30E081E0E5
:1016200090E0022E02C0880F991F0A94E2F78427E7
:101630008C9327C0A5E3B0E0E5E3F0E08081482F7C
:101640008981282F30E081E090E0022E02C0880FCF
:10165000991F0A94E2F784278C9313C0A2E3B0E0A9
:10166000E2E3F0E08081482F8981282F30E081E09B
:1016700090E0022E02C0880F991F0A94E2F7842797
:101680008C930F900F900F900F900F90CF91DF9150
:101690000895DF93CF9300D0CDB7DEB71A821982B9
:1016A00051C189819A81880F991F880F991FFC0168
:1016B000E859FF4F8081882309F046C089819A81CB
:1016C000880F991F880F991FFC01E659FF4F8081F1
:1016D0008130E9F4AAE3B0E0EAE3F0E08081482F4A
:1016E00089819A81880F991F880F991FFC01E759FA
:1016F000FF4F8081282F30E081E090E0022E02C071
:10170000880F991F0A94E2F7842B8C931DC0AAE3DB
:10171000B0E0EAE3F0E08081482F89819A81880F68
:10172000991F880F991FFC01E759FF4F8081282FCF
:1017300030E081E090E0022E02C0880F991F0A94E9
:10174000E2F7809584238C9389819A81880F991F71
:10175000880F991FFC01E859FF4F8081813009F003
:1017600046C089819A81880F991F880F991FFC01B3
:10177000E659FF4F80818130E9F4A7E3B0E0E7E369
:10178000F0E08081482F89819A81880F991F880F06
:10179000991FFC01E759FF4F8081282F30E081E03D
:1017A00090E0022E02C0880F991F0A94E2F7842B62
:1017B0008C931DC0A7E3B0E0E7E3F0E08081482F01
:1017C00089819A81880F991F880F991FFC01E75919
:1017D000FF4F8081282F30E081E090E0022E02C090
:1017E000880F991F0A94E2F7809584238C9389814E
:1017F0009A81880F991F880F991FFC01E859FF4FA4
:101800008081823009F046C089819A81880F991FB2
:10181000880F991FFC01E659FF4F80818130E9F460
:10182000A4E3B0E0E4E3F0E08081482F89819A816D
:10183000880F991F880F991FFC01E759FF4F80817E
:10184000282F30E081E090E0022E02C0880F991F1F
:101850000A94E2F7842B8C931DC0A4E3B0E0E4E388
:10186000F0E08081482F89819A81880F991F880F25
:10187000991FFC01E759FF4F8081282F30E081E05C
:1018800090E0022E02C0880F991F0A94E2F780951B
:1018900084238C9389819A81880F991F880F991FBF
:1018A000FC01E859FF4F8081833009F046C08981EF
:1018B0009A81880F991F880F991FFC01E659FF4FE5
:1018C00080818130E9F4A1E3B0E0E1E3F0E08081E0
:1018D000482F89819A81880F991F880F991FFC01D1
:1018E000E759FF4F8081282F30E081E090E0022E01
:1018F00002C0880F991F0A94E2F7842B8C931DC0B5
:10190000A1E3B0E0E1E3F0E08081482F89819A8192
:10191000880F991F880F991FFC01E759FF4F80819D
:10192000282F30E081E090E0022E02C0880F991F3E
:101930000A94E2F7809584238C9389819A81019699
:101940009A83898389819A818A30910508F4A9CE86
:101950000F900F90CF91DF910895DF93CF93CDB784
:10196000DEB7A6E2B0E0E6E2F0E0808180688C932A
:10197000A7E2B0E0E7E2F0E0808180648C93A7E228
:10198000B0E0E7E2F0E0808180688C93A6E2B0E00E
:10199000E6E2F0E080818E7F8C93A6E2B0E0E6E2A2
:1019A000F0E080818D7F8C93A6E2B0E0E6E2F0E08B
:1019B000808184608C93CF91DF910895DF93CF93E2
:1019C000CDB7DEB76A970FB6F894DEBF0FBECDBFB6
:1019D000898FA7E2B0E0E7E2F0E08081982F907E67
:1019E000898D892B8C93A6E2B0E0E6E2F0E080815D
:1019F00080648C93E6E2F0E0808180E090E0A0E2F9
:101A0000B1E48D8B9E8BAF8BB88F6D897E898F896A
:101A1000988D2BEA3AEA4AEA50E40E941F02DC0160
:101A2000CB01898B9A8BAB8BBC8B69897A898B892B
:101A30009C8920E030E040E85FE30E942504882391
:101A40001CF481E0888B91C069897A898B899C8993
:101A500020E030E04FE753E40E94C50318160CF075
:101A60007BC06D897E898F89988D20E030E04AE7C0
:101A700054E40E941903DC01CB018C879D87AE875B
:101A8000BF876C857D858E859F8520E030E04AE7A5
:101A900055E40E941F02DC01CB0188879987AA8741
:101AA000BB87688579858A859B8520E030E040E8A2
:101AB0005FE30E94250488232CF481E090E09F835B
:101AC0008E833FC0688579858A859B8520E03FEFBE
:101AD0004FE757E40E94C50318164CF56C857D85C9
:101AE0008E859F8520E030E040E251E40E941F0295
:101AF000DC01CB01BC01CD010E944900DC01CB011E
:101B00009F838E830FC080E991E09D838C838C81BD
:101B10009D810197F1F79D838C838E819F81019731
:101B20009F838E838E819F81009769F724C068858B
:101B300079858A859B850E944900DC01CB019F83C2
:101B40008E838E819F819B838A838A819B8101976B
:101B5000F1F79B838A830FC069897A898B899C8975
:101B60000E944900DC01CB01888B888989838981A7
:101B70008A95F1F78983A6E2B0E0E6E2F0E08081A1
:101B800080618C93E4E2F0E0808191816A960FB6E7
:101B9000F894DEBF0FBECDBFCF91DF910895DF93E4
:101BA000CF93CDB7DEB76C970FB6F894DEBF0FBEFC
:101BB000CDBF8AE060E00E94D60880E090E0A0EA15
:101BC000B1E4898F9A8FAB8FBC8F698D7A8D8B8DA5
:101BD0009C8D20E030E04AE755E40E941F02DC01C2
:101BE000CB018D8B9E8BAF8BB88F6D897E898F8952
:101BF000988D20E030E040E85FE30E9425048823D0
:101C00002CF481E090E09C8B8B8B3FC06D897E89AA
:101C10008F89988D20E03FEF4FE757E40E94C5037E
:101C200018164CF5698D7A8D8B8D9C8D20E030E0F7
:101C300040E251E40E941F02DC01CB01BC01CD0156
:101C40000E944900DC01CB019C8B8B8B0FC080E98B
:101C500091E09A8B898B89899A890197F1F79A8B00
:101C6000898B8B899C8901979C8B8B8B8B899C8919
:101C7000009769F714C06D897E898F89988D0E94BD
:101C80004900DC01CB019C8B8B8B8B899C89988BC9
:101C90008F878F8598890197F1F7988B8F8783E3DA
:101CA0000E94DC0E82E30E94DC0E88E20E94DC0EC1
:101CB0008CE00E94DC0E86E00E94DC0E81E00E9437
:101CC000DC0E80E090E0A0E0B0E48B879C87AD87DD
:101CD000BE876B857C858D859E8520E030E04AE758
:101CE00055E40E941F02DC01CB018F839887A987EE
:101CF000BA876F81788589859A8520E030E040E851
:101D00005FE30E94250488232CF481E090E09E8309
:101D10008D833FC06F81788589859A8520E03FEF6C
:101D20004FE757E40E94C50318164CF56B857C8578
:101D30008D859E8520E030E040E251E40E941F0244
:101D4000DC01CB01BC01CD010E944900DC01CB01CB
:101D50009E838D830FC080E991E09C838B838B8170
:101D60009C810197F1F79C838B838D819E810197E4
:101D70009E838D838D819E81009769F714C06F814A
:101D8000788589859A850E944900DC01CB019E8374
:101D90008D838D819E819A83898389819A81019720
:101DA000F1F79A8389836C960FB6F894DEBF0FBE65
:101DB000CDBFCF91DF9108950F931F93DF93CF9302
:101DC000CDB7DEB7C156D0400FB6F894DEBF0FBE18
:101DD000CDBFFE01EF59FF4F808389E060E00E9494
:101DE000D6088AE060E00E94D608FE01EF59FF4F56
:101DF0008081982F991F9927991F87E0692F0E944A
:101E0000D608FE01EF59FF4F808182958695869511
:101E10008370982F917086E0692F0E94D608FE018A
:101E2000EF59FF4F8081829586958770982F91702A
:101E300085E0692F0E94D608FE01EF59FF4F80818F
:101E400082958F70982F917084E0692F0E94D60838
:101E50008BE061E00E94D608FE01E35AFF4F80E06C
:101E600090E0A0E2B1E480839183A283B3838E01EA
:101E7000075A1F4FFE01E35AFF4F60817181828133
:101E800093812BEA3AEA4AEA50E40E941F02DC01FD
:101E9000CB01F80180839183A283B383FE01E75ACB
:101EA000FF4F608171818281938120E030E040E8C2
:101EB0005FE30E942504882334F4FE01E85AFF4FB3
:101EC00081E08083E0C0FE01E75AFF4F60817181AD
:101ED0008281938120E030E04FE753E40E94C50304
:101EE00018160CF0C0C0FE01E35AFF4F60817181EB
:101EF0008281938120E030E04AE754E40E94190394
:101F0000DC01CB01FE01EC5AFF4F80839183A28359
:101F1000B3838E01005B1F4FFE01EC5AFF4F6081BF
:101F200071818281938120E030E04AE755E40E948C
:101F30001F02DC01CB01F80180839183A283B3836C
:101F4000FE01E05BFF4F608171818281938120E01F
:101F500030E040E85FE30E942504882344F4FE015A
:101F6000E25BFF4F81E090E09183808364C0FE01DB
:101F7000E05BFF4F608171818281938120E03FEFC0
:101F80004FE757E40E94C50318160CF043C0FE014A
:101F9000EC5AFF4F608171818281938120E030E0B3
:101FA00040E251E40E941F02DC01CB018E01025B82
:101FB0001F4FBC01CD010E944900DC01CB01F8019B
:101FC000918380831FC0FE01E45BFF4F80E991E0B5
:101FD00091838083FE01E45BFF4F808191810197B3
:101FE000F1F7FE01E45BFF4F91838083DE01A25B8A
:101FF000BF4FFE01E25BFF4F8081918101971196F7
:102000009C938E93FE01E25BFF4F8081918100974C
:10201000D1F64BC08E01025B1F4FFE01E05BFF4F0C
:1020200060817181828193810E944900DC01CB0132
:10203000F80191838083DE01A65BBF4FFE01E25B66
:10204000FF4F8081918111969C938E93FE01E65BF8
:10205000FF4F808191810197F1F7FE01E65BFF4F11
:102060009183808322C08E01085A1F4FFE01E75AD8
:10207000FF4F60817181828193810E944900DC0160
:10208000CB01F8018083DE01A75BBF4FFE01E85A58
:10209000FF4F80818C93FE01E75BFF4F80818A9523
:1020A000F1F7FE01E75BFF4F80838BE060E00E9469
:1020B000D608FE01EB5BFF4F80E090E0A8E4B3E4BC
:1020C00080839183A283B3838E010F5B1F4FFE0138
:1020D000EB5BFF4F60817181828193812BEA3AEA49
:1020E0004AEA50E40E941F02DC01CB01F801808320
:1020F0009183A283B383FE01EF5BFF4F6081718107
:102100008281938120E030E040E85FE30E94250473
:10211000882334F481E0FE01E05CFF4F80839DC0A2
:10212000FE01EF5BFF4F608171818281938120E02E
:1021300030E04FE753E40E94C50318160CF07EC050
:10214000FE01EB5BFF4F608171818281938120E012
:1021500030E04AE754E40E941903DC01CB018CAF64
:102160009DAFAEAFBFAF6CAD7DAD8EAD9FAD20E08E
:1021700030E04AE755E40E941F02DC01CB0188AF42
:1021800099AFAAAFBBAF68AD79AD8AAD9BAD20E08A
:1021900030E040E85FE30E94250488232CF481E0CE
:1021A00090E09FAB8EAB3FC068AD79AD8AAD9BAD83
:1021B00020E03FEF4FE757E40E94C50318164CF5A7
:1021C0006CAD7DAD8EAD9FAD20E030E040E251E4DE
:1021D0000E941F02DC01CB01BC01CD010E9449001D
:1021E000DC01CB019FAB8EAB0FC080E991E09DABD2
:1021F0008CAB8CA99DA90197F1F79DAB8CAB8EA9F7
:102200009FA901979FAB8EAB8EA99FA9009769F7F5
:102210002DC068AD79AD8AAD9BAD0E944900DC014F
:10222000CB019FAB8EAB8EA99FA99BAB8AAB8AA932
:102230009BA90197F1F79BAB8AAB18C0FE01EF5B3E
:10224000FF4F60817181828193810E944900DC018E
:10225000CB01FE01E05CFF4F8083FE01E05CFF4F9D
:10226000808189AB89A98A95F1F789ABFE01EF5985
:10227000FF4F8081869586958695982F917087E08F
:10228000692F0E94D608FE01EF59FF4F8081869585
:102290008695982F917086E0692F0E94D608FE01DE
:1022A000EF59FF4F80818695982F917085E0692FB7
:1022B0000E94D608FE01EF59FF4F8081982F917040
:1022C00084E0692F0E94D6088BE061E00E94D60866
:1022D00080E090E0A0E2B1E48DA79EA7AFA7B8ABE5
:1022E0006DA57EA58FA598A92BEA3AEA4AEA50E4A3
:1022F0000E941F02DC01CB0189A79AA7ABA7BCA74C
:1023000069A57AA58BA59CA520E030E040E85FE3B5
:102310000E94250488231CF481E088A791C069A548
:102320007AA58BA59CA520E030E04FE753E40E94FE
:10233000C50318160CF07BC06DA57EA58FA598A9C6
:1023400020E030E04AE754E40E941903DC01CB01AD
:102350008CA39DA3AEA3BFA36CA17DA18EA19FA1C1
:1023600020E030E04AE755E40E941F02DC01CB0187
:1023700088A399A3AAA3BBA368A179A18AA19BA1C1
:1023800020E030E040E85FE30E94250488232CF43D
:1023900081E090E09F8F8E8F3FC068A179A18AA1D4
:1023A0009BA120E03FEF4FE757E40E94C5031816BA
:1023B0004CF56CA17DA18EA19FA120E030E040E210
:1023C00051E40E941F02DC01CB01BC01CD010E943F
:1023D0004900DC01CB019F8F8E8F0FC080E991E017
:1023E0009D8F8C8F8C8D9D8D0197F1F79D8F8C8F9C
:1023F0008E8D9F8D01979F8F8E8F8E8D9F8D0097D5
:1024000069F724C068A179A18AA19BA10E94490013
:10241000DC01CB019F8F8E8F8E8D9F8D9B8F8A8F3E
:102420008A8D9B8D0197F1F79B8F8A8F0FC069A5CD
:102430007AA58BA59CA50E944900DC01CB0188A749
:1024400088A5898F898D8A95F1F7898F8BE060E067
:102450000E94D60880E090E0A8E4B3E48D8B9E8BC8
:10246000AF8BB88F6D897E898F89988D2BEA3AEA78
:102470004AEA50E40E941F02DC01CB01898B9A8B4F
:10248000AB8BBC8B69897A898B899C8920E030E091
:1024900040E85FE30E94250488231CF481E0888BD8
:1024A00091C069897A898B899C8920E030E04FE767
:1024B00053E40E94C50318160CF07BC06D897E8919
:1024C0008F89988D20E030E04AE754E40E94190398
:1024D000DC01CB018C879D87AE87BF876C857D85AE
:1024E0008E859F8520E030E04AE755E40E941F0278
:1024F000DC01CB0188879987AA87BB8768857985A6
:102500008A859B8520E030E040E85FE30E94250457
:1025100088232CF481E090E09F838E833FC0688500
:1025200079858A859B8520E03FEF4FE757E40E943D
:10253000C50318164CF56C857D858E859F8520E03A
:1025400030E040E251E40E941F02DC01CB01BC01FB
:10255000CD010E944900DC01CB019F838E830FC017
:1025600080E991E09D838C838C819D810197F1F7B7
:102570009D838C838E819F8101979F838E838E8123
:102580009F81009769F724C0688579858A859B8536
:102590000E944900DC01CB019F838E838E819F8145
:1025A0009B838A838A819B810197F1F79B838A832E
:1025B0000FC069897A898B899C890E944900DC0156
:1025C000CB01888B8889898389818A95F1F78983F2
:1025D000CF59DF4F0FB6F894DEBF0FBECDBFCF91FE
:1025E000DF911F910F9108950F931F93DF93CF9366
:1025F000CDB7DEB7C156D0400FB6F894DEBF0FBEE0
:10260000CDBFFE01EF59FF4F808389E061E00E945A
:10261000D6088AE060E00E94D608FE01EF59FF4F1D
:10262000808182958F70982F917084E0692F0E942D
:10263000D608FE01EF59FF4F8081829586958770FD
:10264000982F917085E0692F0E94D608FE01EF59FE
:10265000FF4F80818295869586958370982F917023
:1026600086E0692F0E94D608FE01EF59FF4F808156
:10267000982F991F9927991F87E0692F0E94D608E4
:102680008BE061E00E94D608FE01E35AFF4F80E034
:1026900090E0A0E2B1E480839183A283B3838E01B2
:1026A000075A1F4FFE01E35AFF4F608171818281FB
:1026B00093812BEA3AEA4AEA50E40E941F02DC01C5
:1026C000CB01F80180839183A283B383FE01E75A93
:1026D000FF4F608171818281938120E030E040E88A
:1026E0005FE30E942504882334F4FE01E85AFF4F7B
:1026F00081E08083E0C0FE01E75AFF4F6081718175
:102700008281938120E030E04FE753E40E94C503CB
:1027100018160CF0C0C0FE01E35AFF4F60817181B2
:102720008281938120E030E04AE754E40E9419035B
:10273000DC01CB01FE01EC5AFF4F80839183A28321
:10274000B3838E01005B1F4FFE01EC5AFF4F608187
:1027500071818281938120E030E04AE755E40E9454
:102760001F02DC01CB01F80180839183A283B38334
:10277000FE01E05BFF4F608171818281938120E0E7
:1027800030E040E85FE30E942504882344F4FE0122
:10279000E25BFF4F81E090E09183808364C0FE01A3
:1027A000E05BFF4F608171818281938120E03FEF88
:1027B0004FE757E40E94C50318160CF043C0FE0112
:1027C000EC5AFF4F608171818281938120E030E07B
:1027D00040E251E40E941F02DC01CB018E01025B4A
:1027E0001F4FBC01CD010E944900DC01CB01F80163
:1027F000918380831FC0FE01E45BFF4F80E991E07D
:1028000091838083FE01E45BFF4F8081918101977A
:10281000F1F7FE01E45BFF4F91838083DE01A25B51
:10282000BF4FFE01E25BFF4F8081918101971196BE
:102830009C938E93FE01E25BFF4F80819181009714
:10284000D1F64BC08E01025B1F4FFE01E05BFF4FD4
:1028500060817181828193810E944900DC01CB01FA
:10286000F80191838083DE01A65BBF4FFE01E25B2E
:10287000FF4F8081918111969C938E93FE01E65BC0
:10288000FF4F808191810197F1F7FE01E65BFF4FD9
:102890009183808322C08E01085A1F4FFE01E75AA0
:1028A000FF4F60817181828193810E944900DC0128
:1028B000CB01F8018083DE01A75BBF4FFE01E85A20
:1028C000FF4F80818C93FE01E75BFF4F80818A95EB
:1028D000F1F7FE01E75BFF4F80838BE060E00E9431
:1028E000D608FE01EB5BFF4F80E090E0A8E4B3E484
:1028F00080839183A283B3838E010F5B1F4FFE0100
:10290000EB5BFF4F60817181828193812BEA3AEA10
:102910004AEA50E40E941F02DC01CB01F8018083E7
:102920009183A283B383FE01EF5BFF4F60817181CE
:102930008281938120E030E040E85FE30E9425043B
:10294000882334F481E0FE01E05CFF4F80839DC06A
:10295000FE01EF5BFF4F608171818281938120E0F6
:1029600030E04FE753E40E94C50318160CF07EC018
:10297000FE01EB5BFF4F608171818281938120E0DA
:1029800030E04AE754E40E941903DC01CB018CAF2C
:102990009DAFAEAFBFAF6CAD7DAD8EAD9FAD20E056
:1029A00030E04AE755E40E941F02DC01CB0188AF0A
:1029B00099AFAAAFBBAF68AD79AD8AAD9BAD20E052
:1029C00030E040E85FE30E94250488232CF481E096
:1029D00090E09FAB8EAB3FC068AD79AD8AAD9BAD4B
:1029E00020E03FEF4FE757E40E94C50318164CF56F
:1029F0006CAD7DAD8EAD9FAD20E030E040E251E4A6
:102A00000E941F02DC01CB01BC01CD010E944900E4
:102A1000DC01CB019FAB8EAB0FC080E991E09DAB99
:102A20008CAB8CA99DA90197F1F79DAB8CAB8EA9BE
:102A30009FA901979FAB8EAB8EA99FA9009769F7BD
:102A40002DC068AD79AD8AAD9BAD0E944900DC0117
:102A5000CB019FAB8EAB8EA99FA99BAB8AAB8AA9FA
:102A60009BA90197F1F79BAB8AAB18C0FE01EF5B06
:102A7000FF4F60817181828193810E944900DC0156
:102A8000CB01FE01E05CFF4F8083FE01E05CFF4F65
:102A9000808189AB89A98A95F1F789ABFE01EF594D
:102AA000FF4F8081982F917084E0692F0E94D60893
:102AB000FE01EF59FF4F80818695982F917085E038
:102AC000692F0E94D608FE01EF59FF4F808186953D
:102AD0008695982F917086E0692F0E94D608FE0196
:102AE000EF59FF4F8081869586958695982F917036
:102AF00087E0692F0E94D6088BE061E00E94D6082B
:102B000080E090E0A0E2B1E48DA79EA7AFA7B8ABAC
:102B10006DA57EA58FA598A92BEA3AEA4AEA50E46A
:102B20000E941F02DC01CB0189A79AA7ABA7BCA713
:102B300069A57AA58BA59CA520E030E040E85FE37D
:102B40000E94250488231CF481E088A791C069A510
:102B50007AA58BA59CA520E030E04FE753E40E94C6
:102B6000C50318160CF07BC06DA57EA58FA598A98E
:102B700020E030E04AE754E40E941903DC01CB0175
:102B80008CA39DA3AEA3BFA36CA17DA18EA19FA189
:102B900020E030E04AE755E40E941F02DC01CB014F
:102BA00088A399A3AAA3BBA368A179A18AA19BA189
:102BB00020E030E040E85FE30E94250488232CF405
:102BC00081E090E09F8F8E8F3FC068A179A18AA19C
:102BD0009BA120E03FEF4FE757E40E94C503181682
:102BE0004CF56CA17DA18EA19FA120E030E040E2D8
:102BF00051E40E941F02DC01CB01BC01CD010E9407
:102C00004900DC01CB019F8F8E8F0FC080E991E0DE
:102C10009D8F8C8F8C8D9D8D0197F1F79D8F8C8F63
:102C20008E8D9F8D01979F8F8E8F8E8D9F8D00979C
:102C300069F724C068A179A18AA19BA10E944900DB
:102C4000DC01CB019F8F8E8F8E8D9F8D9B8F8A8F06
:102C50008A8D9B8D0197F1F79B8F8A8F0FC069A595
:102C60007AA58BA59CA50E944900DC01CB0188A711
:102C700088A5898F898D8A95F1F7898F8BE060E02F
:102C80000E94D60880E090E0A8E4B3E48D8B9E8B90
:102C9000AF8BB88F6D897E898F89988D2BEA3AEA40
:102CA0004AEA50E40E941F02DC01CB01898B9A8B17
:102CB000AB8BBC8B69897A898B899C8920E030E059
:102CC00040E85FE30E94250488231CF481E0888BA0
:102CD00091C069897A898B899C8920E030E04FE72F
:102CE00053E40E94C50318160CF07BC06D897E89E1
:102CF0008F89988D20E030E04AE754E40E94190360
:102D0000DC01CB018C879D87AE87BF876C857D8575
:102D10008E859F8520E030E04AE755E40E941F023F
:102D2000DC01CB0188879987AA87BB87688579856D
:102D30008A859B8520E030E040E85FE30E9425041F
:102D400088232CF481E090E09F838E833FC06885C8
:102D500079858A859B8520E03FEF4FE757E40E9405
:102D6000C50318164CF56C857D858E859F8520E002
:102D700030E040E251E40E941F02DC01CB01BC01C3
:102D8000CD010E944900DC01CB019F838E830FC0DF
:102D900080E991E09D838C838C819D810197F1F77F
:102DA0009D838C838E819F8101979F838E838E81EB
:102DB0009F81009769F724C0688579858A859B85FE
:102DC0000E944900DC01CB019F838E838E819F810D
:102DD0009B838A838A819B810197F1F79B838A83F6
:102DE0000FC069897A898B899C890E944900DC011E
:102DF000CB01888B8889898389818A95F1F78983BA
:102E0000CF59DF4F0FB6F894DEBF0FBECDBFCF91C5
:102E1000DF911F910F9108950F931F93DF93CF932D
:102E2000CDB7DEB7C256D0400FB6F894DEBF0FBEA6
:102E3000CDBFFE01EF59FF4F9183808389E061E0B0
:102E40000E94D6088AE061E00E94D608FE01EF5990
:102E5000FF4F80819181929582958F7089279F7015
:102E60008927982F917084E0692F0E94D608FE016F
:102E7000EF59FF4F80819181969587959295829524
:102E80008F7089279F708927982F917085E0692F0F
:102E90000E94D608FE01EF59FF4F808191810024E6
:102EA000880F991F001C880F991F001C892F902DD7
:102EB000982F917086E0692F0E94D608FE01EF5985
:102EC000FF4F80819181880F892F881F990B9195E1
:102ED000982F917087E0692F0E94D6088BE061E0FF
:102EE0000E94D608FE01E35AFF4F80E090E0A0E286
:102EF000B1E480839183A283B3838E01075A1F4F6D
:102F0000FE01E35AFF4F60817181828193812BEA38
:102F10003AEA4AEA50E40E941F02DC01CB01F801C0
:102F200080839183A283B383FE01E75AFF4F6081C0
:102F300071818281938120E030E040E85FE30E946C
:102F40002504882334F4FE01E85AFF4F81E0808392
:102F5000E0C0FE01E75AFF4F608171818281938159
:102F600020E030E04FE753E40E94C50318160CF050
:102F7000C0C0FE01E35AFF4F60817181828193815D
:102F800020E030E04AE754E40E941903DC01CB0161
:102F9000FE01EC5AFF4F80839183A283B3838E019D
:102FA000005B1F4FFE01EC5AFF4F608171818281EF
:102FB000938120E030E04AE755E40E941F02DC01E3
:102FC000CB01F80180839183A283B383FE01E05B90
:102FD000FF4F608171818281938120E030E040E881
:102FE0005FE30E942504882344F4FE01E25BFF4F67
:102FF00081E090E09183808364C0FE01E05BFF4F3D
:10300000608171818281938120E03FEF4FE757E437
:103010000E94C50318160CF043C0FE01EC5AFF4F86
:10302000608171818281938120E030E040E251E44F
:103030000E941F02DC01CB018E01025B1F4FBC010D
:10304000CD010E944900DC01CB01F801918380830E
:103050001FC0FE01E45BFF4F80E991E09183808314
:10306000FE01E45BFF4F808191810197F1F7FE0142
:10307000E45BFF4F91838083DE01A25BBF4FFE01C3
:10308000E25BFF4F80819181019711969C938E9313
:10309000FE01E25BFF4F808191810097D1F64BC02A
:1030A0008E01025B1F4FFE01E05BFF4F608171816B
:1030B000828193810E944900DC01CB01F801918358
:1030C0008083DE01A65BBF4FFE01E25BFF4F808184
:1030D000918111969C938E93FE01E65BFF4F808158
:1030E00091810197F1F7FE01E65BFF4F91838083A9
:1030F00022C08E01085A1F4FFE01E75AFF4F608120
:103100007181828193810E944900DC01CB01F80129
:103110008083DE01A75BBF4FFE01E85AFF4F80812D
:103120008C93FE01E75BFF4F80818A95F1F7FE01EA
:10313000E75BFF4F80838BE060E00E94D608FE01D2
:10314000EB5BFF4F80E090E0A8E4B3E480839183E1
:10315000A283B3838E010F5B1F4FFE01EB5BFF4F1A
:1031600060817181828193812BEA3AEA4AEA50E4D4
:103170000E941F02DC01CB01F80180839183A283AE
:10318000B383FE01EF5BFF4F608171818281938188
:1031900020E030E040E85FE30E942504882334F417
:1031A00081E0FE01E05CFF4F80839DC0FE01EF5B8C
:1031B000FF4F608171818281938120E030E04FE791
:1031C00053E40E94C50318160CF07EC0FE01EB5BB1
:1031D000FF4F608171818281938120E030E04AE776
:1031E00054E40E941903DC01CB018CAF9DAFAEAF5C
:1031F000BFAF6CAD7DAD8EAD9FAD20E030E04AE756
:1032000055E40E941F02DC01CB0188AF99AFAAAF41
:10321000BBAF68AD79AD8AAD9BAD20E030E040E852
:103220005FE30E94250488232CF481E090E09FABAB
:103230008EAB3FC068AD79AD8AAD9BAD20E03FEF6E
:103240004FE757E40E94C50318164CF56CAD7DADF1
:103250008EAD9FAD20E030E040E251E40E941F02BD
:10326000DC01CB01BC01CD010E944900DC01CB0196
:103270009FAB8EAB0FC080E991E09DAB8CAB8CA96E
:103280009DA90197F1F79DAB8CAB8EA99FA90197E2
:103290009FAB8EAB8EA99FA9009769F72DC068AD33
:1032A00079AD8AAD9BAD0E944900DC01CB019FAB9B
:1032B0008EAB8EA99FA99BAB8AAB8AA99BA90197CC
:1032C000F1F79BAB8AAB18C0FE01EF5BFF4F60814B
:1032D0007181828193810E944900DC01CB01FE0152
:1032E000E05CFF4F8083FE01E05CFF4F808189AB93
:1032F00089A98A95F1F789ABFE01EF59FF4F8081CB
:10330000982F917084E0692F0E94D608FE01EF5932
:10331000FF4F8081918196958795982F917085E0D8
:10332000692F0E94D608FE01EF59FF4F80819181DD
:103330009695879596958795982F917086E0692F39
:103340000E94D608FE01EF59FF4F8081918196952A
:1033500087959695879596958795982F917087E094
:10336000692F0E94D6088BE061E00E94D60880E0B9
:1033700090E0A0E2B1E48DA79EA7AFA7B8AB6DA582
:103380007EA58FA598A92BEA3AEA4AEA50E40E9462
:103390001F02DC01CB0189A79AA7ABA7BCA769A52F
:1033A0007AA58BA59CA520E030E040E85FE30E9471
:1033B000250488231CF481E088A791C069A57AA51B
:1033C0008BA59CA520E030E04FE753E40E94C503A5
:1033D00018160CF07BC06DA57EA58FA598A920E0DE
:1033E00030E04AE754E40E941903DC01CB018CA3CE
:1033F0009DA3AEA3BFA36CA17DA18EA19FA120E040
:1034000030E04AE755E40E941F02DC01CB0188A3AB
:1034100099A3AAA3BBA368A179A18AA19BA120E03B
:1034200030E040E85FE30E94250488232CF481E02B
:1034300090E09F8F8E8F3FC068A179A18AA19BA148
:1034400020E03FEF4FE757E40E94C50318164CF504
:103450006CA17DA18EA19FA120E030E040E251E46B
:103460000E941F02DC01CB01BC01CD010E9449007A
:10347000DC01CB019F8F8E8F0FC080E991E09D8F83
:103480008C8F8C8D9D8D0197F1F79D8F8C8F8E8DFC
:103490009F8D01979F8F8E8F8E8D9F8D009769F7DF
:1034A00024C068A179A18AA19BA10E944900DC01E6
:1034B000CB019F8F8E8F8E8D9F8D9B8F8A8F8A8D54
:1034C0009B8D0197F1F79B8F8A8F0FC069A57AA515
:1034D0008BA59CA50E944900DC01CB0188A788A58B
:1034E000898F898D8A95F1F7898F8BE060E00E9442
:1034F000D60880E090E0A8E4B3E48D8B9E8BAF8B80
:10350000B88F6D897E898F89988D2BEA3AEA4AEACD
:1035100050E40E941F02DC01CB01898B9A8BAB8B9C
:10352000BC8B69897A898B899C8920E030E040E8EE
:103530005FE30E94250488231CF481E0888B91C0FE
:1035400069897A898B899C8920E030E04FE753E4D0
:103550000E94C50318160CF07BC06D897E898F8987
:10356000988D20E030E04AE754E40E941903DC0122
:10357000CB018C879D87AE87BF876C857D858E85C7
:103580009F8520E030E04AE755E40E941F02DC01FD
:10359000CB0188879987AA87BB87688579858A85C3
:1035A0009B8520E030E040E85FE30E94250488230B
:1035B0002CF481E090E09F838E833FC068857985FD
:1035C0008A859B8520E03FEF4FE757E40E94C503C3
:1035D00018164CF56C857D858E859F8520E030E042
:1035E00040E251E40E941F02DC01CB01BC01CD018D
:1035F0000E944900DC01CB019F838E830FC080E9CC
:1036000091E09D838C838C819D810197F1F79D834F
:103610008C838E819F8101979F838E838E819F8172
:10362000009769F724C0688579858A859B850E9403
:103630004900DC01CB019F838E838E819F819B8318
:103640008A838A819B810197F1F79B838A830FC0CC
:1036500069897A898B899C890E944900DC01CB01A8
:10366000888B8889898389818A95F1F78983CE59E6
:10367000DF4F0FB6F894DEBF0FBECDBFCF91DF9105
:103680001F910F910895DF93CF93CDB7DEB780E4FC
:103690000E94DC0E80E00E94F41280E00E94F4128E
:1036A0008AE00E94F4128FE10E94F4128FE10E94DE
:1036B000F4128EE00E94F41284E00E94F41280E082
:1036C0000E94F41280E00E94F4128AE00E94F41238
:1036D0008AE00E94F41280E00E94F41281E10E94CC
:1036E000F4128EE00E94F41280E00E94F41280E056
:1036F0000E94F41280E00E94F41280E00E94F41212
:1037000083E00E94F4128BE10E94F41280E00E9498
:10371000F41281E10E94F4128EE00E94F41280E023
:103720000E94F41280E00E94F41280E00E94F412E1
:1037300083E00E94F41283E00E94F41283E00E946E
:10374000F4128FE10E94F4128FE10E94F4128FE1D3
:103750000E94F412CF91DF910895DF93CF9300D0B0
:10376000CDB7DEB789836A838981882329F48A816A
:1037700080680E94DC0E07C08981813021F48A8133
:10378000806C0E94DC0E0F900F90CF91DF91089516
:10379000DF93CF93CDB7DEB76C970FB6F894DEBF4B
:1037A0000FBECDBF9C8F8B8F1A8E198ECDC0298DE9
:1037B0003A8D8B8D9C8DFC01E20FF31F80810E945E
:1037C000F41280E090E0A8ECB2E48D8B9E8BAF8B7E
:1037D000B88F6D897E898F89988D2BEA3AEA4AEAFB
:1037E00050E40E941F02DC01CB01898B9A8BAB8BCA
:1037F000BC8B69897A898B899C8920E030E040E81C
:103800005FE30E94250488231CF481E0888B91C02B
:1038100069897A898B899C8920E030E04FE753E4FD
:103820000E94C50318160CF07BC06D897E898F89B4
:10383000988D20E030E04AE754E40E941903DC014F
:10384000CB018C879D87AE87BF876C857D858E85F4
:103850009F8520E030E04AE755E40E941F02DC012A
:10386000CB0188879987AA87BB87688579858A85F0
:103870009B8520E030E040E85FE30E942504882338
:103880002CF481E090E09F838E833FC0688579852A
:103890008A859B8520E03FEF4FE757E40E94C503F0
:1038A00018164CF56C857D858E859F8520E030E06F
:1038B00040E251E40E941F02DC01CB01BC01CD01BA
:1038C0000E944900DC01CB019F838E830FC080E9F9
:1038D00091E09D838C838C819D810197F1F79D837D
:1038E0008C838E819F8101979F838E838E819F81A0
:1038F000009769F724C0688579858A859B850E9431
:103900004900DC01CB019F838E838E819F819B8345
:103910008A838A819B810197F1F79B838A830FC0F9
:1039200069897A898B899C890E944900DC01CB01D5
:10393000888B8889898389818A95F1F78983898D24
:103940009A8D01969A8F898F298D3A8D8B8D9C8DBA
:10395000FC01E20FF31F8081882309F028CF6C96C9
:103960000FB6F894DEBF0FBECDBFCF91DF910895A3
:10397000DF93CF93CDB7DEB72E970FB6F894DEBFA7
:103980000FBECDBF81E00E94DC0E80E090E0A0E0A1
:10399000B0E48B879C87AD87BE876B857C858D85E2
:1039A0009E8520E030E04AE755E40E941F02DC01DA
:1039B000CB018F839887A987BA876F81788589859E
:1039C0009A8520E030E040E85FE30E9425048823E8
:1039D0002CF481E090E09E838D833FC06F817885D9
:1039E00089859A8520E03FEF4FE757E40E94C503A1
:1039F00018164CF56B857C858D859E8520E030E022
:103A000040E251E40E941F02DC01CB01BC01CD0168
:103A10000E944900DC01CB019E838D830FC080E9A9
:103A200091E09C838B838B819C810197F1F79C8330
:103A30008B838D819E8101979E838D838D819E8155
:103A4000009769F714C06F81788589859A850E94EF
:103A50004900DC01CB019E838D838D819E819A83F9
:103A6000898389819A810197F1F79A83898380E814
:103A70000E94DC0E2E960FB6F894DEBF0FBECDBFAF
:103A8000CF91DF910895DF93CF93CDB7DEB76897DD
:103A90000FB6F894DEBF0FBECDBF82E00E94DC0EF1
:103AA00080E090E0A0E0B0E48D8B9E8BAF8BB88F70
:103AB0006D897E898F89988D2BEA3AEA4AEA50E42B
:103AC0000E941F02DC01CB01898B9A8BAB8BBC8BD4
:103AD00069897A898B899C8920E030E040E85FE33E
:103AE0000E94250488231CF481E0888B91C0698999
:103AF0007A898B899C8920E030E04FE753E40E946B
:103B0000C50318160CF07BC06D897E898F89988D4E
:103B100020E030E04AE754E40E941903DC01CB01C5
:103B20008C879D87AE87BF876C857D858E859F85B9
:103B300020E030E04AE755E40E941F02DC01CB019F
:103B400088879987AA87BB87688579858A859B85B9
:103B500020E030E040E85FE30E94250488232CF455
:103B600081E090E09F838E833FC0688579858A8558
:103B70009B8520E03FEF4FE757E40E94C5031816EE
:103B80004CF56C857D858E859F8520E030E040E298
:103B900051E40E941F02DC01CB01BC01CD010E9457
:103BA0004900DC01CB019F838E830FC080E991E047
:103BB0009D838C838C819D810197F1F79D838C83FC
:103BC0008E819F8101979F838E838E819F81009735
:103BD00069F724C0688579858A859B850E9449009C
:103BE000DC01CB019F838E838E819F819B838A839F
:103BF0008A819B810197F1F79B838A830FC0698932
:103C00007A898B899C890E944900DC01CB01888BD1
:103C10008889898389818A95F1F7898368960FB6A7
:103C2000F894DEBF0FBECDBFCF91DF910895DF9333
:103C3000CF93CDB7DEB76F970FB6F894DEBF0FBE48
:103C4000CDBF8F8F8F8D9AE0692F0E941421892F0D
:103C50008E8F8F8D9AE0692F0E9414218D8F1F8E79
:103C60003BC18AE060E00E94D60889E061E00E94E2
:103C7000D6088E8D982F917084E0692F0E94D60807
:103C80008E8D8695982F917085E0692F0E94D608B9
:103C90008E8D86958695982F917086E0692F0E946B
:103CA000D6088E8D869586958695982F917087E09B
:103CB000692F0E94D60880E090E0A0E2B1E4898FED
:103CC0009A8FAB8FBC8F698D7A8D8B8D9C8D20E008
:103CD00030E04AE755E40E941F02DC01CB018D8BE6
:103CE0009E8BAF8BB88F6D897E898F89988D20E0F0
:103CF00030E040E85FE30E94250488232CF481E053
:103D000090E09C8B8B8B3FC06D897E898F89988DCD
:103D100020E03FEF4FE757E40E94C50318164CF52B
:103D2000698D7A8D8B8D9C8D20E030E040E251E4EE
:103D30000E941F02DC01CB01BC01CD010E944900A1
:103D4000DC01CB019C8B8B8B0FC080E991E09A8BBF
:103D5000898B89899A890197F1F79A8B898B8B894D
:103D60009C8901979C8B8B8B8B899C89009769F729
:103D700014C06D897E898F89988D0E944900DC016D
:103D8000CB019C8B8B8B8B899C89988B8F878F85A4
:103D900098890197F1F7988B8F8789E060E00E94FE
:103DA000D6088AE061E00E94D6088D8D982F917028
:103DB00084E0692F0E94D6088D8D8695982F91708A
:103DC00085E0692F0E94D6088D8D86958695982F5F
:103DD000917086E0692F0E94D6088D8D8695869514
:103DE0008695982F917087E0692F0E94D60880E011
:103DF00090E0A0E2B1E48B879C87AD87BE876B859E
:103E00007C858D859E8520E030E04AE755E40E9460
:103E10001F02DC01CB018F839887A987BA876F8146
:103E2000788589859A8520E030E040E85FE30E944C
:103E3000250488232CF481E090E09E838D833FC08D
:103E40006F81788589859A8520E03FEF4FE757E4B9
:103E50000E94C50318164CF56B857C858D859E8563
:103E600020E030E040E251E40E941F02DC01CB017F
:103E7000BC01CD010E944900DC01CB019E838D83F2
:103E80000FC080E991E09C838B838B819C8101979B
:103E9000F1F79C838B838D819E8101979E838D8317
:103EA0008D819E81009769F714C06F81788589851F
:103EB0009A850E944900DC01CB019E838D838D8110
:103EC0009E819A83898389819A810197F1F79A83E8
:103ED00089838F8D8F5F8F8F8F8D843608F4C1CE4D
:103EE0006F960FB6F894DEBF0FBECDBFCF91DF91B6
:103EF0000895DF93CF93CDB7DEB760970FB6F894F0
:103F0000DEBF0FBECDBF188A1F867FC08F85988900
:103F1000FC01E057FF4F80810E94171E80E090E077
:103F2000AAE7B4E48B879C87AD87BE876B857C85C9
:103F30008D859E8520E030E04AE755E40E941F020F
:103F4000DC01CB018F839887A987BA876F81788539
:103F500089859A8520E030E040E85FE30E942504EF
:103F600088232CF481E090E09E838D833FC06F8195
:103F7000788589859A8520E03FEF4FE757E40E94D6
:103F8000C50318164CF56B857C858D859E8520E0D4
:103F900030E040E251E40E941F02DC01CB01BC0191
:103FA000CD010E944900DC01CB019E838D830FC0AF
:103FB00080E991E09C838B838B819C810197F1F751
:103FC0009C838B838D819E8101979E838D838D81C0
:103FD0009E81009769F714C06F81788589859A85DD
:103FE0000E944900DC01CB019E838D838D819E81DF
:103FF0009A83898389819A810197F1F79A838983CA
:104000008F8598890196988B8F878F8598898A30BC
:1040100091050CF47BCF60960FB6F894DEBF0FBE0F
:10402000CDBFCF91DF910895DF93CF93CDB7DEB7AA
:104030006D970FB6F894DEBF0FBECDBF0E94490B3F
:104040000E949D0667E670E080E090E00E944F06C7
:104050001D8E80E090E0A0E2B1E4898F9A8FAB8F53
:10406000BC8F698D7A8D8B8D9C8D20E030E04AE786
:1040700055E40E941F02DC01CB018D8B9E8BAF8B20
:10408000B88F6D897E898F89988D20E030E040E877
:104090005FE30E94250488232CF481E090E09C8B50
:1040A0008B8B3FC06D897E898F89988D20E03FEF93
:1040B0004FE757E40E94C50318164CF5698D7A8DB9
:1040C0008B8D9C8D20E030E040E251E40E941F0285
:1040D000DC01CB01BC01CD010E944900DC01CB0118
:1040E0009C8B8B8B0FC080E991E09A8B898B89899F
:1040F0009A890197F1F79A8B898B8B899C89019713
:104100009C8B8B8B8B899C89009769F714C06D8978
:104110007E898F89988D0E944900DC01CB019C8BA0
:104120008B8B8B899C89988B8F878F85988901973A
:10413000F1F7988B8F870E948E068D8F8D8D0E9450
:10414000D50680E090E0A0E2B1E48B879C87AD8744
:10415000BE876B857C858D859E8520E030E04AE7B3
:1041600055E40E941F02DC01CB018F839887A98749
:10417000BA876F81788589859A8520E030E040E8AC
:104180005FE30E94250488232CF481E090E09E8365
:104190008D833FC06F81788589859A8520E03FEFC8
:1041A0004FE757E40E94C50318164CF56B857C85D4
:1041B0008D859E8520E030E040E251E40E941F02A0
:1041C000DC01CB01BC01CD010E944900DC01CB0127
:1041D0009E838D830FC080E991E09C838B838B81CC
:1041E0009C810197F1F79C838B838D819E81019740
:1041F0009E838D838D819E81009769F72ACF6F8181
:10420000788589859A850E944900DC01CB019E83CF
:104210008D838D819E819A83898389819A8101977B
:10422000F1F79A83898315CF991B79E004C0991F10
:10423000961708F0961B881F7A95C9F78095089500
:104240002F923F924F925F926F927F928F929F92A6
:10425000AF92BF92CF92DF92EF92FF920F931F9394
:10426000CF93DF93CDB7DEB7CA1BDB0B0FB6F89445
:10427000DEBF0FBECDBF09942A88398848885F8485
:104280006E847D848C849B84AA84B984C884DF80F6
:10429000EE80FD800C811B81AA81B981CE0FD11DDA
:1042A0000FB6F894DEBF0FBECDBFED010895F894B0
:0242B000FFCF3E
:1042B20000000000000000000100000001010000F9
:1042C20001020000010300000104000001050100D9
:1042D20001060000010701000300000003010100C4
:0A42E20000010203040506070809A5
:00000001FF
